:100000000C9462000C948A000C948A000C948A0070
:100010000C948A000C948A000C948A000C948A0038
:100020000C948A000C948A000C948A000C948A0028
:100030000C948A000C948A000C948A000C948A0018
:100040000C94B3030C948A000C9498010C94EA016C
:100050000C948A000C948A000C948A000C948A00F8
:100060000C948A000C948A000000000024002700F1
:100070002A0000000000250028002B0000000000DE
:1000800023002600290004040404040404040202DA
:100090000202020203030303030301020408102007
:1000A0004080010204081020010204081020000012
:1000B0000007000201000003040600000000000029
:1000C0000000D20211241FBECFEFD8E0DEBFCDBFAB
:1000D00011E0A0E0B1E0EAECF8E002C005900D927A
:1000E000A432B107D9F711E0A4E2B1E001C01D923A
:1000F000A93DB107E1F710E0C4ECD0E004C02297BD
:10010000FE010E945F04C23CD107C9F70E94290387
:100110000C9463040C9400008EEA91E060E071E0BE
:100120000E94A00387E00E944401909325018093E0
:1001300024018130910529F48DE061E00E94F000F6
:100140000895892B21F48DE060E00E94F00008956D
:100150008DE061E00E94B10087E060E00E94B100A4
:100160000895CF93DF93482F50E0CA0186569F4FE2
:10017000FC0134914A575F4FFA018491882369F159
:1001800090E0880F991FFC01E859FF4FA591B491A9
:10019000FC01EE58FF4FC591D491662351F42FB75F
:1001A000F8948C91932F909589238C93888189233F
:1001B0000BC0623061F42FB7F8948C91932F909517
:1001C00089238C938881832B88832FBF06C09FB798
:1001D000F8948C91832B8C939FBFDF91CF910895DE
:1001E000482F50E0CA0182559F4FFC012491CA015B
:1001F00086569F4FFC0194914A575F4FFA01349104
:10020000332309F440C0222351F1233071F024300C
:1002100028F42130A1F0223011F514C02630B1F0BD
:100220002730C1F02430D9F404C0809180008F774A
:1002300003C0809180008F7D8093800010C084B5C2
:100240008F7702C084B58F7D84BD09C08091B000D6
:100250008F7703C08091B0008F7D8093B000E32F33
:10026000F0E0EE0FFF1FEE58FF4FA591B4912FB7AE
:10027000F894662321F48C919095892302C08C9187
:10028000892B8C932FBF0895682F70E0CB01825586
:100290009F4FFC012491CB0186569F4FFC01449156
:1002A0006A577F4FFB019491992319F420E030E0C5
:1002B0003CC0222351F1233071F0243028F4213046
:1002C000A1F0223011F514C02630B1F02730C1F072
:1002D0002430D9F404C0809180008F7703C08091CE
:1002E00080008F7D8093800010C084B58F7702C01E
:1002F00084B58F7D84BD09C08091B0008F7703C025
:100300008091B0008F7D8093B000892F90E0880F9E
:10031000991F84589F4FFC01A591B4918C9120E0C6
:1003200030E0842311F021E030E0C9010895089500
:100330001F920F920FB60F9211242F933F934F935A
:100340008F939F93EF93FF938091C00082FD1DC018
:100350004091C60020916601309167012F5F3F4FA9
:100360002F733070809168019091690128173907C7
:1003700071F0E0916601F0916701EA5DFE4F408304
:10038000309367012093660102C08091C600FF91FF
:10039000EF919F918F914F913F912F910F900FBEB1
:1003A0000F901F901895E091BA01F091BB01E05CAD
:1003B000FF4F8191919120813181805C9F4F821B01
:1003C000930B60E470E00E943604892B11F00E94C8
:1003D000970108951F920F920FB60F9211242F9339
:1003E0003F938F939F93EF93FF932091AA013091B6
:1003F000AB018091AC019091AD012817390731F420
:100400008091C1008F7D8093C10014C0E091AC0148
:10041000F091AD01E659FE4F20818091AC019091A1
:10042000AD0101968F7390709093AD018093AC01F4
:100430002093C600FF91EF919F918F913F912F9153
:100440000F900FBE0F901F901895DC011C96ED9138
:10045000FC911D97E05CFF4F81919191208131814A
:10046000805C9F4F821B930B60E470E00E94360417
:100470000895DC011C96ED91FC911D97E05CFF4F07
:1004800020813181E054F040DF01AE5BBF4F8D91A0
:100490009C9111972817390719F42FEF3FEF07C0E8
:1004A0008D919C91E80FF91F8081282F30E0C901C0
:1004B0000895DC011C96ED91FC911D97E05CFF4FC7
:1004C00020813181E054F040DF01AE5BBF4F8D9160
:1004D0009C9111972817390719F42FEF3FEF10C09F
:1004E0008D919C911197E80FF91F20818D919C911E
:1004F000119701968F73907011969C938E9330E0B4
:10050000C9010895DC0191968C919197882339F067
:100510005496ED91FC915597808186FFF9CF919685
:100520001C920895CF93DF93EC01EE85FF85E05C8C
:10053000FF4F20813181E054F0402F5F3F4F2F73F8
:100540003070DF01AE5BBF4F8D919C9111972817E2
:100550003907D1F3E05CFF4F80819181E054F04096
:10056000E80FF91F6083EE85FF85E05CFF4F318364
:100570002083EE89FF89208181E090E00F8C02C00A
:10058000880F991F0A94E2F7282B208381E089A322
:10059000EC89FD8980818064808381E090E0DF9137
:1005A000CF9108951092B1011092B00188EE93E0BE
:1005B000A0E0B0E08093B2019093B301A093B401A6
:1005C000B093B50187E191E09093AF018093AE01C4
:1005D00086E291E09093BB018093BA018AE691E0B4
:1005E0009093BD018093BC0185EC90E09093BF0196
:1005F0008093BE0184EC90E09093C1018093C00190
:1006000080EC90E09093C3018093C20181EC90E074
:100610009093C5018093C40182EC90E09093C70150
:100620008093C60186EC90E09093C9018093C80145
:1006300084E08093CA0183E08093CB0187E08093BC
:10064000CC0185E08093CD0181E08093CE010895B7
:100650000895CF93DF930E94FB030E9428030E941A
:10066000A800C3EDD1E00E948C002097E1F30E9426
:10067000D301F9CFCF92DF92EF92FF920F931F93A6
:10068000CF93DF937C016B018A01C0E0D0E00FC003
:10069000D6016D916D01D701ED91FC910190F08132
:1006A000E02DC7010995C80FD91F01501040011551
:1006B000110571F7CE01DF91CF911F910F91FF903E
:1006C000EF90DF90CF900895EF92FF920F931F93DA
:1006D0008C01DC01ED91FC910190F081E02D6DE049
:1006E00009957C01D801ED91FC910190F081E02DFC
:1006F000C8016AE009959C012E0D3F1DC9011F919B
:100700000F91FF90EF900895CF93DF93EC01611567
:10071000710519F420E030E00FC0DB010D900020DE
:10072000E9F71197A61BB70BE881F9810280F381E5
:10073000E02DAD0109959C01C901DF91CF9108958C
:10074000EF92FF920F931F937C010E9484038C0110
:10075000C7010E946403080F191FC8011F910F9160
:10076000FF90EF9008951F920F920FB60F921124F1
:100770002F933F938F939F93AF93BF938091D40117
:100780009091D501A091D601B091D7013091D801B7
:100790000196A11DB11D232F2D5F2D3720F02D5760
:1007A0000196A11DB11D2093D8018093D40190938F
:1007B000D501A093D601B093D7018091D00190913B
:1007C000D101A091D201B091D3010196A11DB11D1B
:1007D0008093D0019093D101A093D201B093D30123
:1007E000BF91AF919F918F913F912F910F900FBE2D
:1007F0000F901F901895789484B5826084BD84B55D
:10080000816084BD85B5826085BD85B5816085BD0B
:10081000EEE6F0E0808181608083E1E8F0E0108224
:10082000808182608083808181608083E0E8F0E065
:10083000808181608083E1EBF0E08081846080834F
:10084000E0EBF0E0808181608083EAE7F0E0808186
:1008500084608083808182608083808181608083E6
:100860008081806880831092C100089597FB092ED3
:1008700007260AD077FD04D00CD006D000201AF449
:10088000709561957F4F0895F6F7909581959F4FEC
:100890000895AA1BBB1B51E107C0AA1FBB1FA617C7
:1008A000B70710F0A61BB70B881F991F5A95A9F719
:1008B00080959095BC01CD010895EE0FFF1F059026
:0A08C000F491E02D0994F894FFCFA5
:1008CA0053657269616C20746573742E206C6F6F46
:1008DA006F70000000000092023A032502590239A3
:0408EA000282020084
:00000001FF
